:0C2B280001020408102040800302030199
:03275600019A00E5
:10212F00D2C0D2C2D2C020C008789AE64402F6804C
:10213F0009789AE630E10354FDF620C108789AE653
:10214F004404F68009789AE630E20354FBF620C285
:10215F0007789AE64401F622789AE630E00354FEB7
:02216F00F62256
:102A6700C2AF53D0E7122BA31224BD3007031218AD
:022A77009D229E
:1027F00075B40575B50A75B60975B7062275D4A006
:0E28000075A88822C2AFEF25E025E0F5F7228B
:1024BD00E59630E104D21B801EE59630E205122A26
:1024CD00C18017E59630E305122659800DE596304B
:1024DD00E0051227D28006122906E4F596022BA3F9
:10290600759D0BE4F52A122BA3122AD2122BA37F54
:0A2916006E12280E1227FD0226ACF7
:102AC100122BA3122AD21226F37520827FCA02008A
:012AD1005EA6
:1026F300E4F5F2753B7D753C7D753D01FF74982FC4
:10270300F8E4F6749B2FF8E4F60FBF02F07543016B
:0127130022A3
:1027D200E59630E4067544191227FDE5F354CA4420
:0E27E200C2FF12005E12248B53968E022A4014
:10248B0030032EE4F53EE5E430E00353E4FEE5E7EC
:10249B0030E01E53E7FEE537902B3093F5E5E5373B
:1024AB00902B3293FFEF6006E4F5E51F80F743E7CF
:0124BB00011F
:0124BC0022FD
:10265900122BA343C067759E6075F3811200361271
:102669002A79EF20E504EF30E6E675F301759E60FF
:0B2679007F6212280E1227FD022906C6
:1029F00012280475B3E61227F00000000000000062
:042A000000D2AF222F
:10296C001228048DBE8BBF75B36E1227F0000000C9
:08297C000000000000D2AF22B0
:101A9B00E478D1F608F6FF7E3078D0F678D0E6FD04
:101AAB00C394C8501E8F828E83E493B4551574046F
:101ABB002FFFE43EFE78D2740426F618E436F618AF
:101ACB000680D9EDB4C80B7F0C1229F0E478D1F65F
:101ADB0008F678D2E6FD7B557F0C12296CE604FDE7
:101AEB0078DCE6FB12296C78D2E62402FD78DDE681
:041AFB00FB02296C55
:101C1D007F007E30E478D0F678D0E6FDC394C850CE
:101C2D00358F828E83E4936455601FED94004008D8
:101C3D0074FC2FFF74FF3EFE8F828E8374019378A8
:101C4D00DCF674029378DDF6800C74042FFFE43E0D
:101C5D00FE78D00680C278DCE6D394024002E4F62A
:0A1C6D0078DDE6D394014002E4F6AE
:011C7700224A
:03000300020026D2
:03002600C2A8323B
:03000B0002000AE6
:01000A0032C3
:0300130002002EBA
:03002E00C2AA3231
:03001B0002286454
:10286400C0E0C0F0C083C082C0D075D008121ED3AF
:0B287400D0D0D082D083D0F0D0E03272
:0300230002004692
:03004600C2AC3217
:03002B0002004E82
:03004E00C2AD320E
:0300330002005672
:03005600C2AE3205
:0300430002287F11
:10287F00C0E0C0F0C083C082C0D075D0181219203C
:0B288F00D0D0D082D083D0F0D0E03257
:03004B0002289AEE
:10289A00C0E0C0F0C083C082C0D075D01812192021
:0B28AA00D0D0D082D083D0F0D0E0323C
:03005300020006A2
:0400060053A9FB32CD
:03005B000228B5C3
:1028B500C0E0C0F0C083C082C0D075D01812282BEC
:0B28C500D0D0D082D083D0F0D0E03221
:030063000228D0A0
:1028D000C0E0C0F0C083C082C0D075D018121B61A8
:0B28E000D0D0D082D083D0F0D0E03206
:03006B0002000E82
:04000E0053A9DF32E1
:030073000228EB75
:1028EB00C0E0C0F0C083C082C0D075D0181219A14F
:0B28FB00D0D0D082D083D0F0D0E032EB
:03007B000200166A
:0400160053A97F3239
:101ED300E4F594759355152DE52D7042FFFEFDFC39
:101EE30078DE120D4BD3120D08402278DE74FF12F8
:101EF3000D5AE4FBFAF9F8C3120D08701078DB767B
:101F03000178DCE6B40204D2B68002C2B6D20B7505
:101F13002D14300309E544D3940040021544D20C38
:011F2300229B
:0F2AD200122984122BA3122B76E4F59502268489
:10298400E4F5A8F5A9F5DCF5DDF5B8F5B9F5DAF562
:06299400DBF5DEF5DF2299
:10268400E4F59AF59BF59C759D1B759E60F5A4F584
:10269400A2F5A3F5A5F5A67580FF7590FF75B0BFEB
:0826A40075A0FFC2B6D2B422FA
:092B76001224ED12257B02299ABC
:1024ED00E4FF742E2FF8E4F60FBF08F6E478B3F688
:1024FD00FF74B42FF8E4F60FBF06F6E4FF74BA2F9D
:0F250D00F8E4F60FBF04F6E4F522752120F5245B
:01251C00229C
:10257B00E4F526F5257884F618F6F538F537F55099
:10258B00F536F53AF53EF53FF540F541F542F543A5
:0D259B00F5447870F6789676FC7895F62277
:10299A007F127871E4F608DFFC122B6C7F107885C1
:0529AA00E4F608DFFC6B
:0129AF002205
:092B6C007F12789DE4F608DFFCFD
:012B7500223D
:072BA300E4F594759355223F
:102A7900122BA3122A048F66122A04E566B507F001
:012A8900FF4D
:012A8A002229
:102A0400122BA385C067122BAAE567B5C0F2E56750
:032A14005460FF0C
:012A1700229C
:1026AC00C2AF122BA3439E6075F301752001301B42
:1026BC001375F3411226F3D207D21BD219C2187F1D
:0526CC00C212005E22B5
:03005E008FF322FB
:10280E00C2AF75D3FC75D4F053DAF7EF600E122B0E
:0D281E00A3E5DA30E3F853DAF71F80EF226C
:072BAA000000000000002202
:0D003600000000000000000000000000229B
:1029B00012003600000000000000000000000000CF
:0629C000000000000022EF
:1037FB000214B6000075F0A5C2AF759355E596207F
:10380B00E16230E228E520B44123B52420E521B460
:10381B004B1BE522B44916E523B4521101D5759E15
:10382B006075C07F9037FEE493645A60EF9037FB6E
:10383B00E493B402E7E4F5F0900000758107F5D04E
:10384B000237FB903FBA78207906E5F0B4A5FDE48A
:10385B0093F608A3D9F9E4F51DF51EF51F9037FF74
:10386B0093F52722114E741420C5B330C6B01470D3
:10387B00F7F59EF8741475C0DFD8FE30C6A075C07E
:10388B00BFD8FE20C59875C0FFD8FE30C590B40ACE
:10389B0002F51DB41103751E09B40602F51F7593CD
:1038AB0055D5E0D2D8FE20C50520C60221A67581CC
:1038BB002775C09F7512057D377CFE745AB1BEC249
:1038CB00C5D1C5D2C5D1C530C5F575935575812701
:1038DB00E4F5D0759E6075C07FE596540A600A7555
:1038EB00F301114ED1CF75F3C2513075F3CA7594F4
:1038FB0003E520B441FD652470FE20AFFD759355A3
:10390B00E5DB30E03B53DBFEE5EF5418701C7153E5
:10391B00BB082043EF0453EFFEE5EF20E41571E500
:10392B00516420330E53EFFB01FC20E40E43EF04F4
:10393B0053EFFE43EC0243EF0271F153EFFB01FC3B
:10394B0030E10553DBFD211330E31F53DBF753EF5E
:10395B00FB20300471612170E510B40106E50AF516
:10396B00F2600071F153EFFB01FC30E42C53DBEF01
:10397B00E5EF20E41443EF04203104E5EE700E5321
:10398B00EFFE71F153EFFB01FCD233213E71534338
:10399B00EF0453EFFE71AD218F01FCC2C67594038A
:1039AB00758127513075120575C0FF75935520C56C
:1039BB00FA30C607C2C620C5EF21C174025122B42A
:1039CB003310511DFC511DFDBD5ADDEC70DAF11B9E
:1039DB0021B3B4551679087A08511DF709DAFA792B
:1039EB00087A08E7B1C409DAFA21B3B466FD913756
:1039FB0070FE7A08D18D759355D375C0FF30C5FD18
:103A0B0020C5FD3392C6C370F430C5FDC2C6DAE4DF
:103A1B0021B375C0FF740130C5FD20C5FDA2C633AF
:103A2B0050F5C2C622E4F596F5F2F5267818F6D8CD
:103A3B00FDF5A8F5A9F5DCF5DDF5B8F5B9F5DAF581
:103A4B00DBF5DEF5DFF595F59AF59BF59CF59D1409
:103A5B00F580F590F5A0F5B0227B00E5087012D249
:103A6B0030E509B4050474014187B4095DF52241C1
:103A7B008620E759D230E509B40A09E48BEBF5103F
:103A8B0043EC0122B40943E508B4213EE50BB40233
:103A9B000474024187B403329100B4050CBE062AAC
:103AAB00BF002774047E044187B4060CBE021BBF03
:103ABB00081874067E004187B4410FB5250C913769
:103ACB0060021161B11974084187D23322D23120BF
:103ADB00E534E509B406F3E50B30E502941B60EA27
:103AEB00B4080050E523F8903FAA93FC7D3FE8040F
:103AFB0093FE7F00E50F7009C3EE950E4003E50EB4
:103B0B00FE7512416192B4A1C1D509BEE50BB40398
:103B1B00B99100B40519BE06B1BF00AE7A04E51326
:103B2B00B452A77B028512EA75EA721E1E6185B438
:103B3B00060ABE0295BF08927A066129B4418BB57D
:103B4B0025889137708461927808E5EEF9FB600562
:103B5B00A6ED08D9FB22E5106010EF7008EE600BA4
:0D3B6B00B40802D234E510B405092210346C
:103B780001227B004186B4070E7A087B0071FB7135
:103B88009E912E74074187B409E37198740941879F
:103B9800B1187A087B00EE4F600AEA6007D18DF50C
:103BA800EA0BDAF222E510B40220E509F4551130E7
:103BB800E21453F3F7759E6075C07F11615130753B
:103BC800F301D1C5013885091122B40406910D7B92
:103BD800004186B4060281D7B408EEA101E453DBA4
:103BE80067F5E953ECFD53EFFDE4F510F512F52602
:103BF800D23722AC14AD1522AC0CAD0DAE0EAF0F02
:103C0800E50AF51222E508B405FAE509B477028158
:103C18001BF513B4521E91376008E50BB4FC0C7504
:103C28000A00AC0AAD0B8C148D1522E4F51322E5BD
:103C38002764A522B45706913770F0812AB4560933
:103C4800912AEC4D70E5F51822B47727E513B4579F
:103C5800B371FB7A04790AEE4F600BE513B4570889
:103C6800E7B1C409DAF1812ED18D67600474EE42A0
:103C78001880F0B44116E50AB44B11E50BB4490CB1
:103C8800E50CB45207E50DB44102F52554DFB445FF
:103C98003DE50AB4450D630B4F630C4C630D43912E
:103CA800CCE11BB45A087CFE7D37E50BA1BEB4A558
:103CB80007B5271A7CFF81B0B4FF069137700FA1B2
:103CC8002CB4050A850B1D850C1E850D1F2222E5C7
:103CD8001354FEB4561F103708EB7908FA71FB81AC
:103CE8005FE5096420B5130DE508B40608790AEB09
:103CF800C3940250E775130022EB6014B408004027
:103D0800027408FA7908EE4F6006E7B1C409DAF6DA
:103D180022913770FBEDB45AF7ECB4FE047455A148
:103D28003CB4FF0474AAA13C543CF5F775BE007579
:103D3800BF0074E6F5B3759355751C05E512B40517
:103D480055851CB4751C0A851DB5851EB6E5B3B42A
:103D5800E61AE5F724C8502B8030E5BEB4030050BE
:103D680022048380023800B5BF20A18BB46E14E50D
:103D7800F760E724C8500C24F9500F700DE5BE24F5
:103D8800415007851FB700000000E4F5B3F5B4F50E
:103D9800B5F5B6F5B722B40602A149B441F7A14971
:103DA800EE70011F1E227D007C017438B1BE7400C4
:103DB800B1BE7C007402F5BF8DF7C110F5BFE512E6
:103DC800B44102C108BDFC0A75F73FEC44C0F5BE1A
:103DD800C112ED700FECB40300502575F73724FBC2
:103DE800F5BEC112B4FF09303016EC20E712C11934
:103DF800B43800501CB43708BCFA004003BCFA11B0
:103E0800EDB440005026F5F78CBE746EB13C75F7E2
:103E180000B1A8C1B7B4FE07ECF8E5BFF6C119B404
:103E2800FD08ECF875F700E5BFF2C119B4FFE6EC40
:103E380033745A4001C48CBEC114E583700CE5820A
:103E4800B40300504B9037FBC18AB4FF0A303140AD
:103E5800E58220E73BC186B4FC1575833FEC30E76B
:103E68000644C0F582C1895403FC2418F8C1ADB4D6
:103E78003800500AB43719E582B4FA004012903776
:103E8800FAE493C1B7B1A88C828D83E512B441AA34
:103E9800E583B440005004E493C1B7B4FF02C1B64F
:103EA800B4FE05A882E6C1B7B4FD04758300E00C32
:103EB800BC00090DBDFD011DBD00011D22D1C7D8E3
:103EC800FE759355D9F9227806E4F6D8FD7F40753A
:103ED8001205D18D29F950050ABA00010B759355C1
:0D3EE800BD40EF891B8A1A8B19E94A4B6017
:103EF50006BB3F06BAC0037527A522C2AF53F3F729
:103F0500759355758127B45AFDE4F5D0F5F3759E83
:103F15006075C07F01EA74381454FCFAB130EA7058
:103F2500F7B1AEB1AEC1CF12011001000000080318
:103F35000620100103000000010403090409022200
:103F450000010100A032090400000103010100097C
:103F550021100100012248000705810308000A0518
:103F6500010906A1018507050895087501190129AB
:103F7500089102C00600FF0901A10185051500256C
:103F8500FF1901290575089505B102C00600FF094D
:103F950001A1018506150025FF1A01002A010875F2
:103FA50008960108B102C02C1242223E044B095D5D
:103FB5000754096448414B49524100000000000084
:103FC50000000000000000000000000000000000EC
:103FD50000000000000000000000000000000000DC
:103FE50000000000000000000000000000000000CC
:0B3FF5000000000000000000000000C1
:03000000023800C3
:1014B600000000E59620E10B20E20E20E30B20E081
:0F14C60008800078FFE4F6D8FD7581E20215106A
:0B2B400003A001A802A00202A0205A7E
:0627590001C00001C600F2
:10100300E478C7F608F608F608F608F6902B4A9334
:10101300FF7B007A0079C722EB4FFFEAFEE9FDE888
:10102300FC78D0120D7878D0120D3F7808120D2C71
:1010330078D0120D7878D022EB4FFFEAFEE9FDE875
:10104300FC78D4120D7878D4120D3F7808120D2C49
:1010530078D4120D7878D42278C776A008762090B9
:101063002B4AE422902B4AE493FF2278C776A00808
:1010730076062278C776A00876082278C776A00875
:10108300760A2278C776A00876040876D6902B4A8B
:10109300E42278C5EFF6D2AF78952278C776A00818
:1010A30076180876CA0876CA22D2AF75E60643E7F1
:1010B30001E4F539F5442278C776A0087640902BF1
:1010C3004AE422900005020C6AAB60AA61A962227D
:1010D300900004120C9790000522F678CBE6FFE40B
:0E10E300FCFDFE22EB4FFFEAFEE9FDE8FC22D9
:101361007896E6240F602714603D24FE604C1460DB
:101371006514607914605624FA6075240D600302C7
:101381001402789676F11214037F1A12280EC2AF56
:10139100121555121095BFFA0876E1789676F2800B
:1013A1000676D1789676FDC2AF1222D9121095BF7A
:1013B100FA0476E2801B76D28017C2AF1221711235
:1013C1001095BFFA0476E4800276D480047895768D
:1013D100E7789676FC22C2AF1206AF7895BFFA0481
:1013E10076E5800276D5789676FCD2AF2212140388
:1013F10078AF120D8400000000789676FCE47895B1
:0F140100F622439D0BD2B27F0A12280EC2B222EE
:1015550078AF120D8400000000E47F32FEFDFC78B8
:10156500AF120D4BC3120D08506C1210677A2B7910
:1015750041902B401215DEBFFB037FFB2212106743
:101585007A2B7945902B441215DEBFFB037FFB2296
:101595001210677B007A0079D0756D02121CD27823
:1015A500C5EFF6BFFB037FFB2278D0E6B42208081F
:1015B500E6B4DD037FFA227F0212280E78AF120D02
:1015C5003FEF2401FFE43EFEE43DFDE43CFC78AF43
:0815D500120D7802155E7FFB88
:0F15DD00227BFFE493F56D1220A278C5EFF62272
:1011DC008C668D678B6812106EEF08F6EE08F69031
:1011EC002B4AE41210121212A6BFFB037FFB221231
:1011FC001076E56708F6E56608F6902B4AE41210BF
:10120C00121212A6BFFB037FFB2212107E08A668E7
:10121C00E412100D756D041220A2BFFB037FFB229C
:10122C0012109E902B4AE4121012756D041220A21B
:10123C00BFFB037FFB2278C776A00876040876E014
:10124C00902B4AE4121012756D031220A2BFFB03FF
:10125C007FFB227F4B12280EE478C2F612105B1231
:10126C001012756D021220A2BFFB037FFB22E478E3
:10127C00C712100C756D02121CD2BFFB037FFB2230
:10128C0078C7E6B4E00808E6B488037FFA2278C28F
:10129C0006E6C3946440C57FFB22756D041220A240
:0112AC00221F
:1022D9007B027D007C80E4FFFE1211DCBFFB037FE3
:1022E900FB227B017E80122308BFFB037FFB227B3D
:1022F900047EB0122308BFFB037FFB227FFA227DF5
:09230900007C107F001211DC229F
:102A1800439D03122BAA539DFDC2B11229B0539DA9
:042A2800FEC2B02218
:102A8B00539DFDC2B1122BAA439D011229B0439D48
:022A9B00022215
:101E8000E4FEEF30E705439D028005539DFDC2B19E
:101E9000000000000000439D01EF25E0FF0000006E
:101EA000000000000000000000539DFEC2B00EBE06
:101EB00008D0000000000000000000000000439D6A
:101EC00002000000000000439D01122BAA539DFE5A
:021ED000C2B09E
:011ED20022ED
:10234B008F108B118A128913122A18E51025E0FFC2
:10235B00121E80AF141514EF601AAB11AA12A91339
:10236B00120C51FF121E8074012513F513E4351264
:07237B00F51280DF022A8B3E
:100AFB008B608A6189621210C6FE900004120C6A28
:100B0B00FDEDFF78C3EEF608EFF6C3EE94904008C8
:100B1B00E426F618742036F61210CC900001120C55
:100B2B006A242F604514606724026003020BCD1208
:100B3B00106E78C3E6FE08E678C9F6EE08F6120BDF
:100B4B00CE121076E408F6087604120BCE12107E45
:100B5B00E408F608F6C378C3E69490400478C976A7
:100B6B0003120C2312109E120C2312106725E01295
:100B7B0010CC900003120C9774A01210D374401277
:100B8B000C97122A18120BFC1210C6FF021E8012B1
:100B9B002A8B1210CC90000374A0120C97740412C1
:100BAB0010D374E1120C97122A18902B4AE4932558
:100BBB00E0FF121E80120BFC1210C6FF121E8012D9
:100BCB002A8B22122A18902B4AE49325E0FF121E3F
:100BDB008078C7E6FF121E8078C8E6FF121E807869
:100BEB00C9E6FF121E8078CAE6FF121E80122A8BFE
:100BFB0022AB60AA61A962900003120C6AFF121E5D
:100C0B0080AB60AA61A962900004120C6AFF121EED
:100C1B0080AB60AA61A96222122A18902B4AE49336
:100C2B0025E0FF121E8078C7E6FF121E8078C8E60B
:100C3B00FF121E8078C9E6FF121E8078CAE6FF12EB
:060C4B001E80122A8B221C
:102171001210677BFF7A2B7948902B47E493F56D1A
:102181001220A278C5EFF664FA702112100F756D56
:1021910002121CD278C5A60778C7E6B4E10E08E69C
:0F21A100B4880978C5E6B4FA037FFA227FFB22DF
:1006AF0012106EE412100B1208B4BFFB037FFB2273
:1006BF00121076E408F608769012100F1208B4BFE5
:1006CF00FB037FFB2212107EE412100B1208BBBF3C
:1006DF00FB037FFB22121086121012756D0312207E
:1006EF00A2BFFB037FFB221208D612105B1210125F
:1006FF001208C2BFFB037FFB22E478C712100C75F0
:10070F006D02121CD2BFFB037FFB2278C7E6B4D663
:10071F000608E6648860051208C940CE1210BA12A6
:10072F0010121208C2BFFB037FFB22121003756D5C
:10073F0005121CD2BFFB037FFB2278C7E678D812C5
:10074F0010DD121024120D4BC00078CAE6FFD00046
:10075F0012101B120D4BC00078C9E6FFD00012100B
:10076F001B120D4BC00078C8E6FFD0001210E778BF
:10077F00D0120D7812106EE408F60876B012100F32
:10078F001208BBBFFB037FFB221210760876FC0812
:10079F00760F902B4AE4121012756D041220A2BF2F
:1007AF00FB037FFB2212107E087601E412100D75F9
:1007BF006D041220A2BFFB037FFB221210861210C2
:1007CF0012756D031220A2BFFB037FFB221208D606
:1007DF0012105B121012756D021220A2BFFB037F65
:1007EF00FB22E478C712100C756D02121CD2BFFBEE
:1007FF00037FFB2278C7E6B4D60608E66488600557
:10080F001208C940CB1210BA121012756D021220C5
:10081F00A2BFFB037FFB22121003756D05121CD2C2
:10082F00BFFB037FFB2278C7E678D91210DD1210C9
:10083F0044120D4BC00078CAE6FFD00012103B12D5
:10084F000D4BC00078C9E6FFD00012103B120D4BC4
:10085F00C00078C8E6FFD0001210E778D4120D78E8
:10086F0078D8E6B4CA3C08E6B4CA37E47F02FEFD86
:10087F00FC78D4120D4B120CB978D0120D4BEF2B14
:10088F00FFEE3AFEED39FDEC38FCEF24ABFFEE3412
:10089F00FFFEED34FFFDEC34FFFC78AF120D787FD7
:0408AF00FA227FFBAF
:1008B30022756D041220A222756D041220A22275E6
:1008C3006D021220A2227F0212280E78C206E6C30E
:0D08D3009464227F4B12280EE478C2F622B6
:102A2C00439D03122BAA539DFDC2B11229B0539D95
:042A3C00FEC2B02204
:102A9D00539DFDC2B1122BAA439D011229B0439D36
:022AAD00022203
:101AFF00E4F56FFEEF30E705439D028005539DFD32
:101B0F00C2B1000000000000439D01EF25E0FF007F
:101B1F000000000000000000000000539DFEC2B056
:101B2F000EBE08D000000000000000000000000002
:101B3F00439D02000000000000439D01122BAAA24A
:101B4F00B1E433FD539DFEC2B0BD01037FFB227F85
:011B5F00FA8B
:011B60002262
:101D8200E4F56F439D02FE439D01E56F25E0F56F8B
:101D9200A2B1E433426F0000000000000000000026
:101DA2000000539DFEC2B0000000000000000000D1
:101DB2000000000EBE08D0EF6005439D028005536F
:101DC2009DFDC2B1122BAA439D01122BAA539DFE67
:041DD200C2B0AF6F7D
:011DD60022EA
:1020A2008F698B6A8A6B896C122A2CE56925E0FF9D
:1020B2007D01121AFFBFFA23AF6D156DEF6022ABDF
:1020C2006AAA6BA96C120C51FF7D01121AFF7401EE
:1020D200256CF56CE4356BF56B80DD122A9D7FFB78
:0720E20022122A9D7FFA2261
:081CD2008F698B6A8A6B896C33
:101CDA00122A2CE56925E04401FF7D01121AFFEF63
:101CEA0064FA701CF56EE56D14FFE56EC39F50092A
:101CFA00E4FF121D16056E80ED7F01121D16800687
:0B1D0A00122A9D7FFB22122A9D7FFA07
:101D150022121D82AB6AAA6BA96C856E827583003F
:051D2500EF120C9722F3
:1025D5008B608A6189628D63AF631563EF601CABA5
:1025E50060AA61A962120C51FF7D01121AFF7401E4
:0C25F5002562F562E43561F56180DD22AD
:10226500E478B3F6FF74B42FF8E4F60FBF06F6C2B0
:1022750022E478C6F678C0F678BEF6C2AFF5E2F588
:10228500E2FFE4F5E20FBF06F9D2AF75E30843E4D8
:0922950001853B3CE4F539F544F8
:01229E00221D
:101E2C0078BEE6B421047D4F803D78BEE6B4220432
:101E3C007D50803378BEE6B423047D51802978BE72
:101E4C00E6B424047D52801F78BEE6B425117D02D1
:101E5C00E4FF122AAF121F741229B07D2B80087870
:101E6C00BEE6B4260A7D2BE4FF121DD7121F74E4C4
:041E7C0078BEF62214
:10007E0078C6E6D39400401716E6701B78BEE6FFEE
:10008E0094214010EFD39426500A121E2C8008782B
:10009E00BEE66003122265C2B2E478BFF630B30347
:1000AE0002039FE6600302039FC2AF122A2C7D015A
:1000BE007F20121AFFBFFB06122A9DD2AF22122BEF
:1000CE00AA7D017F55121AFF122A9D1200367B005F
:1000DE007A0079D2756D057F10121CD2BFFB03D248
:1000EE00AF22D2AF20B50302039F78D2E6FFB45001
:1000FE0006E478CCF608F630240302039FEF645032
:10010E00600302039F78D6E6C4540F78D1F67003CD
:10011E0002029B78D3E65470600302029BC2AF7852
:10012E00D1E6FF64086012EF6409600DEF640C60A5
:10013E0008EF640D60030201E578C0E6FFD394007A
:10014E004008EF6421600312226578C0762178C6DC
:10015E00766478BEE6600302029878D1E664087091
:10016E002178C1E670107D041203A078C176017863
:10017E00BE76260202987D4F1203B378BE76210218
:10018E00029878D1E66409702678C1E670157D0470
:10019E001203E07D021203A078C1760178BE7625A7
:1001AE000202987D501203B378BE7622020298782E
:1001BE00D1E6B40C0C7D511203BC78BE762302023C
:1001CE009878D1E6640D60030202987D521203BC4A
:1001DE0078BE762402029878D1E6FF64016005EFBE
:1001EE006402704378C1E66007122265E478C1F6B6
:1001FE0078C0E670097D011203E078C07620C2AFA8
:10020E0075E501E478D0F6E4F5E578D006E6B403BA
:10021E00F678D1E6B4010575E501800375E5FFE4D6
:10022E00F5E51210AC806378C0E6705E78D1E6B466
:10023E0007127D087F01122AAF7D2B1203C578C0ED
:10024E007606804678D1E6B406127D087F01122A22
:10025E00AF7D071203C578C07607802E78D1E6B43D
:10026E000B127D0B7F01122AAF7D731203D778C05C
:10027E00760E801678D1E6B40E107D0B7F01122A11
:10028E00AF7D711203D778C0760FD2AF2278C0E659
:10029E00FFD394005003020340EFB4200A7D0112F5
:1002AE0003CEE478C0F62278C0E6B4210C7D0412A9
:1002BE0003CEE478C1F618F62278C0E6B4030280C5
:1002CE001878C0E6B40402803D78C0E6B405047D1B
:1002DE0051804978C0E6B406047D2B803F78C0E695
:1002EE00B407047D07803578C0E6B40F137D0BE4A8
:1002FE00FF122AAF121F747D71E4FF121DD7802BDF
:10030E0078C0E6B40E0E7D73E4FF121DD7121F7473
:10031E007D0B801278C0E6B410117D05E4FF121D2E
:10032E00D7121F747D08E4FF122AAFE478C0F602DC
:10033E001F74C2AF75E50178D3E6FFC45403789AF3
:10034E0046F5E578D4E6F404F5E508E6F404F5E5BB
:10035E00E478D1F6EF5470703078D6E6FF5407602B
:10036E002878D176FFEF30E302760178D3E630E7D6
:10037E000CE4F5E578D1E6F404F5E5801178D1E6E4
:10038E00F404F5E5E4F5E58005E4F5E5F5E5121090
:01039E00ACB2
:10039F00227F01122AAF121F747D2B7F01121DD7EE
:1003AF00121F74227F01121DD7121F74227F011298
:1003BF001DD7121F74227F01121DD7121F7422E442
:1003CF00FF122AAF121F74227F01121DD7121F7442
:0A03DF00227F01122AAF121F7422C0
:10141000E47815F678CD06E618700106D378CDE6A7
:10142000942018E6944E405B78BFE6705678CCF670
:1014300008F6C2AF122A2C7D017F20121AFFEF643A
:10144000FA70277D017F60121AFF122A9D12003662
:10145000122A2C7D017F21121AFFBFFA0B7F011285
:101460001D827815A60780028000122A9D7815E655
:101470006455600D78BF7601539DF4C2B1C2B0C20D
:10148000B3D2AF78BFE6B4012478CF06E618700176
:1014900006D378CFE694D018E694074018C2B2D2AB
:1014A000B1D2B0D2B3439D0BE478BFF622E478CE3C
:0514B000F608F6C2B2CF
:0114B5002214
:1021B000122A2C7D017F20121AFFBFFB02801A7D9C
:1021C000017F1D121AFF122A9D120036122A2C7D41
:1021D000017F21121AFFBFFB08122A9DE47870F6D6
:0E21E000227F01121D827870A607122A9D220E
:1003E9001803530049004E004F00200057004500F4
:1003F90041004C005400480000040309042003484C
:1004090000410049004C00550043004B00200043C7
:10041900004F002E002C004C0054004400001A0329
:1004290055005300420020004B004500590042008E
:100439004F00410052004400005346442D435044AC
:100449002D57494E2D55532D48312D30412D3030E2
:100459000012011001000000088A250C00000101AA
:1004690002000105010906A101050719E029E7159F
:10047900002501750195088102950175088101958D
:100489000375010508190129039102950575019163
:100499000195067508150026FF00050719002AFFB2
:1004A900008100C005010902A10185010901A1001E
:1004B900050919012905150025017501950581020F
:1004C9007503950181010501093009310938158143
:1004D900257F750895038106050C0A380295018167
:1004E90006C0C00601000980A10185022501150089
:1004F90075010A81000A82000A8300950381069525
:10050900058101C0060C000901A10185032501151A
:100519000075010AB5000AB6000A6F000A70000AE0
:10052900E2000AA2000AE9000AEA00950881020A23
:1005390083010A94010A86010A88010A8A010A923A
:10054900010AB7000ACD00950881020A21020A238F
:10055900020A24020A25020A26020A27020A2A0294
:100569000AB10295088102C00501090CA10185099A
:100579001500250109C695017501810675078103D5
:10058900C00600FF0901A1018506150025FF1A0112
:10059900002A0F047508960F04B102C00600FF096E
:1005A90001A1018505150025FF1901290575089582
:1005B90005B102C009023B00020100A03209040092
:1005C9000001030101000921100100012241000776
:1005D90005810308000A090401000103000000095C
:1005E90021100100012210010705820308000AFFFA
:1005F90015ECFF1C78FF2B34FF200FFF2B34FF274E
:1006090094FF0EEFFF2B34FF293AFF26D1FF25A8CF
:10061900FF2382FF2B34FF2B34FF167EFF1FC2FFFF
:10062900254DFF2B34FF2B34FF2B34FF2B34FF2BAD
:1006390034FF170AFF1D2AFF251DFF2BBEFF2BC400
:10064900FF2B7FFF1793FF2AE1FF2AF0FF2BBEFF45
:100659002BBEFF2B4BFF2B56FF2BCAFF2BD0FF2B9B
:10066900BEFF2714FF23B8FF2BD6FF2BDCFF2BE29D
:10067900FF2B88FF2BE8FF2BEEFF0066FF2B91FF76
:100689002BF4FF006EFF2B9AFF2BFAFF23EEFF2CB2
:1006990000FF2BBEFF2AFFFF2BBEFF2BBEFF2BBE89
:0606A900FF20E9FF1BC069
:1012AD0053DBEFD213AF47EF75F003A42467F5823C
:1012BD00E43406F583740193FA740293F9227548A8
:1012CD000275EB0143B91075E90643EC012275482F
:1012DD0001E4F5EB43B90875E90143EC01228529D9
:1012ED0082852883E493754A00F54B7546072214D1
:1012FD00F5828C83E493F5EA0F22120D19E48FEA3F
:10130D0078AF020D3FC3E54D9408E54C940022756E
:10131D00490874F8254DF54D74FF354CF54C22F503
:10132D0083740193FA740293F9020D9DE493424E76
:10133D0075470F754801E42243EF0453EFFE22E594
:10134D003545344533220529E529AC28227B007A21
:04135D0000792E22C3
:0D2B0E00E548C394064003E4F548AF4822B3
:102775008F49E4FDFCEFFBC3ED9B7480F86C98502A
:0E2785000D742E2DF8A6ED0DBD00010C80E7A1
:012793002223
:1029C600200302D322E52E64A16008E52E64A260EE
:0529D60002D322C32220
:1029DB00200302D322E52E64216008E52E642260D9
:0529EB0002D322C3220B
:062BB800E4F548F5B92226
:1024240043C067E4F5A3F5A2F5A5F5A6C2B6D2B7F5
:10243400F539F54485F327C2AF53968E122BA34387
:102444008702758E5500000043F3207F1A12280E70
:0424540053F3CF224D
:1019A100E4F565E5DF30E103E4F5DFE5DF30E26B27
:1019B10053DFFB122BA30539AF39EFC395424058D2
:1019C100300349E53E7008E550653660028016E453
:1019D100FF749D2FF974712FF8E64742650FBF120E
:1019E100F0E56560095396BFE4F539D2AB22E4F521
:1019F1009543F310E5A4B4FF0D75A0FFE4F580F560
:101A01009043B00B8003122A40122424E4F595433D
:0E1A1100F310122A40122424D2AB22E4F5DF97
:011A1F0022A4
:10192000C2AFE5EF54186007E5EF20E46E8066E58E
:10193000EE64087060AFEE122775121345E5EF20D4
:10194000E459E4F5B953DB67F548F5475322F0F560
:1019500046F5E9F539E52E546024E0601B2420703B
:1019600037E52FC3940D5033AF2FEF75F003A42448
:10197000F8F582E434058015E52FC3940C501CAFB4
:101980002FEF75F003A4241FF582E434061212C071
:10199000120D9D8006121345122B3453EFFBD2AF6C
:0119A0002224
:1015EC00E5346402600302167AE535600302167A6C
:1015FC00E52E247F601414602A2402706FE5A47019
:10160C0004F5EA804675EA028041E5336002805EAB
:10161C00E5321460050470098021300302801C80BF
:10162C004D804BE53360028045E5322480600C141C
:10163C00600E14601B248270318000E4F5EA801C7B
:10164C0030030BE5E45402C313F5EAE4800E801E6C
:10165C00300315E5E75402C313F5EAE4F5EA7548DF
:10166C000275EB021212D122800480028000122B30
:02167C00342216
:101C7800E5317052E52E24FE601024027046E530EE
:101C8800B401057547038032803CE5334530703236
:101C9800E5322480600F14601114601824827020CB
:101CA800754704801575470580103003057547068C
:101CB8008008801230030775470A1212DB2280065B
:0A1CC800800480028000122B3422F9
:10200F00E53545344531703FE52E700CE530B401B0
:10201F00057547078029802FE52E64027027E53369
:10202F0045307021E532547F601B300318E532B420
:10203F0081057547088008E532B4820775470B1292
:0B204F0012DB2280028000122B3422E2
:10279400E53445354531452E7011E530C3948050FC
:0F27A4000A8530457547011212DB22122B3422B1
:100EEF00E52E64806009E52E64816003020FFFE543
:100EFF0031546024E07003020F8B24206003020F33
:100F0F00FDE52EB48103020FFFE53124FE601914B5
:100F1F00602824027064754A00754B127528047599
:100F2F00295A754601020FF6754A00754B3B752815
:100F3F00057529BD754602020FF6E53014601614CB
:100F4F00601F2403602714702F752804752902125F
:100F5F0012EB020FF67528047529061212EB020F19
:100F6F00F67528047529271212EB020FF675280360
:100F7F007529E91212EB806F80768074E533700566
:100F8F00E52EB480028069E532702DE53124DE60F4
:100F9F0014047022754A00754B097528057529CF01
:100FAF007546038042754A00754B417528047529B3
:100FBF006C75460480318038E5326401702EE5315E
:100FCF0024DE6014047023754A00754B09752805DB
:100FDF007529E8754605800F754A01754B10752800
:100FEF00047529AD754606021A2080048002800020
:040FFF00122B34225B
:10293A00E534B40110E535700CE52EB48007853A0C
:09294A00EA1212CB22122B3422F6
:1026D100E53545344531452E7014E5F26010E5309D
:1026E1006005E530B401077547021212DB22122B97
:0226F100342291
:1025A800300326E53545337020E5346401701AE5BB
:1025B8002E64817014E53270028006E532B401079A
:0D25C800E4F5EA1212CB228000122B34221F
:1023820030032F12134C453145307026E52E64017F
:102392007020E5327008754709754801800CE532F6
:1023A200B4010D75470C754801E4F5EB1212D12208
:0623B2008000122B342212
:10167E001229C65003021706E533701DE5327019A4
:10168E00E5307015E531B4020EE52A5407F5EA751A
:10169E00480275EB018035805FE53064057031E5F9
:1016AE00316403702B75EA057895E6F5EA78AF128A
:1016BE000D3F12130A7808121307781012130778C9
:1016CE0018120D198FEA75480275EB061212D12207
:1016DE00E530B40621E531B4031CE534B41017E54A
:1016EE0035B40412752804752942754A00754B17D6
:0C16FE00754608021A208000122B3422CE
:101FC2001229C64044E5354533703CE5346401705E
:101FD20036E5327009E5307030853BEA8021E53222
:101FE20064017021902B3093B530077898E6F5EABA
:101FF200800D902B31E493B530097899E6F5EA1219
:0D20020012CB22800480028000122B3422B9
:10254D001229C64025E5354533701DE5346401700B
:10255D0017E5327005853DEA8008E532B40107853F
:0E256D0043EA1212CB2280028000122B34228D
:10170A001229DB500302178FE533707CE5357034FC
:10171A00E5349408502EE53254FE7026E530453201
:10172A00700AE531B402057547128037E530B40511
:10173A000FE531B4030AE534B4060575471680236C
:10174A0080438041E53564047020E5346410701AE2
:10175A00E53264017014E530B4060DE531B40308CE
:10176A007547177548048015801BE5327015E530FA
:10177A00700FE531B4020A7547127548051212DE78
:09178A002280028000122B34229F
:101D2A001229DB404F12134C7048E5327009E53036
:101D3A00704275470D8010E53264017033E53070EA
:101D4A000B434E0375470F754801801E902B30E4F4
:101D5A0093B53008902B28121339800E902B31E45A
:101D6A0093B5300A902B291213391212DF228004FC
:081D7A0080028000122B3422CC
:10251D001229DB402712134C4531701EE53270082D
:10252D0075470E754801800CE532B4010B754710E7
:10253D00754801E41212DF2280028000122B342232
:062BBE0053EFFBD2AF2231
:062BC4001212B2020D9D89
:092B7F0043EC0253EFFBD2AF223C
:10179300E54D454C6070121312400512131C80086E
:1017A300854D49E4F54CF54DE549604FE546604B01
:1017B300E54664087031E54D454C702BFFE549243F
:1017C300FEFEEFC39E500C12135370020528121233
:1017D300FC80EA7870E6FEC4540F2430F5EAEE5438
:1017E3000F2430F5EA8014E4FFEFC39549500C123F
:1017F3001353700205281212FC80EE8549EB121276
:10180300D12012118008301109C211E4F5EB43EC29
:05181300012243EC027C
:0118180022AD
:0F2AE100E5DB30E4061212AD020D9D122BB82278
:0F2AF000E5DB30E4061212AD020D9D122BB82269
:0B2B4B0053DBEFD213E4F546022BB879
:0B2B560053DBEFD213E4F546022BB86E
:062BCA001212B2020D9D83
:062BD0001212B2020D9D7D
:102714008545F2E4F53A53E4F753E7F7E5F2600848
:102724005320F043208480065320F0432082022B60
:01273400B8EC
:1023B80085303AE53A601453E4FD43E40C53E7FDF5
:1023C80043E70C5320F0432088801853E4F753E781
:1023D800F7E5F260085320F043208480065320F08C
:0623E800432082022BB825
:062BD600E4F5A4022BB897
:062BDC0053EFFD022BB8CF
:062BE20053ECFD022BB8CC
:092B880053E4FD43E40C022BB8F8
:092B910053E7FD43E70C022BB8E9
:062BE80075A4FF022BB8EA
:062BEE0043E40E022BB8C7
:062BF40043E70E022BB8BE
:03006600022BB8B2
:03006E00022BB8AA
:092B9A0085313B85313C022BB86A
:1023EE00E54E5403FFBF0314E4FF74982FF8A63193
:1023FE00749B2FF8A6310FBF02F08017E54E30E028
:10240E000A7898A631789BA63180087899A63178FB
:06241E009CA631022BB860
:062BFA0085303D022BB8FE
:062C0000853043022BB8F1
:0F2AFF00E548B40409E52E5407F52A122BB82236
:1020E900E533453245314530701AE52E64057033C4
:1020F900E52F6475702DC2AF745A75F0A512001ED4
:10210900D2AF801FE52FB4A0067895760B8014E531
:102119002FB4A1067896A6308009E52FB4A30478D8
:062129007076F1022BB8F4
:101BC000E52EB4061CE530B4CC17E531B4CC12E5F3
:101BD00034B4CC0DE535B4CC0812135A120AFB808C
:101BE00038E52E64EE702AE53064CC7024E531B41B
:101BF000CC1FE532B4CC1AE533B4CC15E534B4CC03
:101C000010E535B4CC0B12135A120AFBE4F54880E8
:0D1C10000812135A7D081225D5E4F5B922FB
:10282B00C2AF43EF04122B0EEF75F003A42443F554
:0D283B0082E4340612132C53EFFBD2AF22BF
:101B6100C2AFE5EF30E402802943EF04E5EE6027E0
:101B7100E5EEC39409400E12134543EC0243EF0214
:101B8100122BB8801DAFEE12277553EFFEE5EF3033
:101B9100E41553DBF7800B53EFFEE5EF30E4085318
:101BA100DBF753EFFB8012122B0EEF75F003A42429
:0F1BB10055F582E4340612132C53EFFBD2AF220A
:101A2000AF35EFFEAD347C00E42DFFEC3EFE754893
:101A300002F54C8F4DE546600FC3E54B9FE54A9E8E
:101A40005006854A4C854B4D121312400DE54864F3
:101A5000026005E548B404020548E54D54077004EA
:101A6000D2118002C211121312400512131C8008F9
:101A7000854D49E4F54CF54DE5496018E54660149F
:101A8000E4FFEFC39549500C12135370020528125E
:0A1A900012FC80EE8549EB1212D122
:011A9A002229
:0C2B340043EC0243EF02E4F548F5B9223F
:04001E00023F00227B
:10189D00122A5478BF7601E478CCF608F678CEF6A5
:1018AD0008F678C1F678BEF67816760178DBF6780C
:1018BD00DE120D8400001D4C121C1D122BA3122BC9
:1018CD001B200305E4F52180F2539DAF121F741206
:1018DD00205A7870E6B4F109E4F6C2AF1221B0D205
:1018ED00AF7895E6700512007E800312136178DDE6
:1018FD00E67004D2B48002C2B4300B0AC20B122BB4
:10190D006112260180B5300C05C20C121F2412285D
:03191D004880A857
:102A5400752D1475D3CE53DAF753DAFD75D4A075FA
:032A6400A888221D
:0D2B1B0043DD0643A95B43A88053D0E722A9
:0B2B6100E53B6006D53C03853B3C22B1
:10284800E550B5360BE4F536F55030090EC20922CD
:0C2858000536E536540FF5361208E02274
:1026010020B505C2B6D2B72278DBE6701478DCE6D5
:10261100FF7004D2B6800AEFB40204D2B68002C2BF
:0C262100B6E52A30E103C2B722D2B7228E
:100DA300070B0000000002020000022007100000F1
:100DB300000000000000012A0000000001280000DC
:100DC3000000070A01130000070E070D01380B2C62
:100DD3000000070901120000010F013700000000A5
:100DE3000000000000000000013301340000070F81
:100DF30002010000000000000000000000000000ED
:100E030000000000000000000000000000000204D9
:100E130000000708010C0000010E0136011000005C
:100E2300070C070301080602010701060604000078
:100E330004000000000002080000000000000000A1
:100E430000000702011A01390116011D0601000005
:100E5300070007010114012B01040000060001290A
:100E630007050000000001170109011B0000010A2A
:100E73000000070701180000010D00000111000028
:100E8300070600000000011C000001190105010B09
:100E93000B2E0704011506030000000000000000EC
:100EA3000000000000000000000010040F050E0603
:100EB300000000000000000000000000000000002F
:100EC30046B349B22FB430B731B6353A1E3B1F3C57
:100ED300203D213E223F23402441254226432744EF
:0C0EE3004C452D65524B514E504A4F4D6E
:10275F0001E20001DA0001DC0001DB0004DE000011
:05276F00000001DD0087
:1027B300F583E493FDA20AE433FF22A20AE433FF84
:0F27C300AD6622E56625E024C4F582E4340E22DB
:10245800ED6007789AE64FF68006EFF4789A56F61C
:1024680030B31FC2AF75E501789AE6F5E5E4F5E506
:10247800F5E5F5E5F5E5D2AF75E60643E701F5398B
:03248800F54422F6
:1008E00074852536F8E6FFC394904003020AFA7532
:1008F000F002EFA424A3F582E5F0340DF583E49330
:10090000F56775F002EFA424A4F582E5F0340DF547
:1009100083E493F566E5677003020AFA122735E56A
:1009200067B4040F20B503020AFA300A04D2268005
:1009300002C226200A03020A4620B503020AFA78F8
:10094000DBE66002E4F678DCE678DEB40209120D3C
:1009500084000003E88007120D8400001D4CE56749
:10096000B40203020A4BE567B40103020A1EE567FD
:10097000B40303020A61E567B40503020A6CE56784
:100980006406702230261C1227C6F583E493FDB45A
:10099000FE09302403C22422D22422A20AE433FF17
:1009A000020A64020A80E5676409700B302605A21A
:1009B0000A020AD1020A98E5676407701BE56625FA
:1009C000E030260A24CEF582E4340E020AC424CD97
:1009D000F582E4340E020AC4E567640B70463026E3
:1009E0003DE566642C701E78DCE6FFB402047601F7
:1009F0008029EFB40106E478DCF6801FEF701C78E4
:100A0000DC76028016E566642E6003020AFA78DD61
:100A1000E66004E4F6800478DD7601021A9BA20AFF
:100A2000E4020AD1E567B40E057D01020ADFE5673D
:100A3000B40F057D01020AEAE56764106003020A4B
:100A4000FA7D01020AF5E567B402061227BE022A02
:100A5000AFE567B40106A20AE4020AD1E567B40370
:100A6000061227BE0221EEE567B405051227BE80F7
:100A70002EE567640670161227C61227B31221EE00
:100A8000E56625E024C3F582E4340E8037E567B4DB
:100A900009101227BE121DD7A20AE433FF7D0202FD
:100AA0002920E56764077021E56625E024CEF582FC
:100AB000E4340E1227B3121DD7E56625E024CDF5E8
:100AC00082E4340E1227B3800CE567B40B0AA20A45
:100AD000E433FFAD66021DD7E567B40E06E4FD7F83
:100AE000018014E567B40F06E4FD7F048009E56723
:0A0AF000B41007E4FD7F0212245841
:010AFA0022D9
:102312007D687F01121DD77D697F01121DD7121FB3
:1023220074E5E430E3FBE5E4540370F57D68E4FF13
:10233200121DD77D69E4FF121DD7121F74E5E43028
:09234200E3FBE5E4540370F5220D
:101DD700EF601FE4FE74B42EF8E6700974B42EF8B1
:101DE700A605D2222274B42EF8E66D60370EBE0621
:101DF700E422E4FE74B42EF8E66D7024EEC3940575
:101E07005017AF06EFC39405500F74B52FF8E6FCD3
:101E170074B42FF8A6040F80EBE478B9F6D2222227
:041E27000EBE06D015
:011E2B002294
:1021EE00ED2450131313541FFE53061F0EED540708
:1021FE00902B2893FBFCEF601074BA2EF8E65C70FF
:10220E001A74BA2EF8E64C800F74BA2EF8E65C609B
:0B221E000A74BA2EF8EBF456F6D22139
:012229002292
:102AAF00D222EF600678B3E64DF622EDF478B356F6
:022ABF00F622FD
:10292000EF600A78BAE65D7010E64D800978BAE685
:0A2930005D6006EDF456F6D2202299
:101F7400E5E430E348E5E45403704230223FC222F2
:101F8400E59630E4045396EF22C2AF78B3E6F5E267
:101F9400E4F5E230080AFF75E2010FBF06F9800D8F
:101FA400E4FF74B42FF8E6F5E20FBF06F5D2AF757F
:0D1FB400E30843E401853B3CE4F539F544C6
:011FC10022FD
:10205A00E5E730E342E5E75403703CE54470383085
:10206A002011C220C2AF75E50278BAE6F5E575E639
:10207A0002801A302121C221C2AF75E50378BBE67E
:10208A00F5E508E6F5E508E6F5E575E604D2AF43B9
:08209A00E701E4F539F54422E9
:10262D001080204002010804FBFDFDF77FF7FB7FC2
:10263D00DFBFBFEFFEEFDFFEFEFE00010000010178
:0C264D0001000000010001010100030376
:072BB1005407902B2893222A
:101F240020094C121819300F028041E526701774ED
:101F3400712525F8A6380525E525C39412500122FC
:101F44000526E4F5252274712525F8E66538600236
:101F5400801A0525E525C3941250012212229F926E
:101F640008300802800620090312222A122C0622B5
:102A4000E4F59CF59BF59A7580FF7590FF75A0FFE6
:042A5000539EF82277
:10295300E4FEFDEE25E0FEED90262D935F6003433C
:0829630006010DBD08EDAF06F1
:01296B002249
:10181900122A40E525C394125075E5259026479371
:10182900FFC394045065EF64026060EF700AE52518
:1018390090263593F5808011E52590264793B401CC
:1018490008E52590263593F590122BAA85A0381224
:101859002BAAE538B5A0F2AFA0122953EFF4F53859
:10186900E525B4101220C20343380120C1034338CF
:101879000220C003433804E525B4090BE53830E7F5
:1018890004D2268002C226C20F8006D20F8002D25D
:041899000F022A40D0
:10229F00E4FFFE74712EF8E6FD5FFCED4207EC6083
:1022AF0023C3135455FDEC54552DFC13135433FD18
:1022BF00EC54332DFCC4540FFDEC540F2DD394016B
:0922CF004002D3220EBE12CBC363
:0122D80022E3
:062C0600E4F526F525228D
:10222A00E4F566F566749D2566F8E6FF7471256621
:10223A00F8E6FEB507028019EE6FFFAD661210F1DF
:10224A0050012274712566F8E6FF749D2566F8A68A
:0A225A00070566E566C3941240CB49
:012264002257
:0410F1008F678D6810
:1010F500E4F56A74712568F8E6F569E4FF436A80EA
:10110500E56A25E004F56AC20AE56930E702D20A14
:10111500E56925E0F569E56720E70EBF0702C3220B
:10112500E56725E0F5670211D0E56725E0F567E598
:1011350068C394124002D3220550E550540FF55070
:10114500E56833333354F84FFE74852550F8A60609
:10115500E550122BB1FE200A15E55030E308EEF4F8
:10116500788456F68016EEF4788356F6800EE550B0
:1011750030E304788480027883E64EF6E5506536E0
:101185006007EF64077044C322EFC394075017E567
:101195006A25E0F56A30D7047E0180027E00EE25DF
:1011A5006AF56A0F80E374712568F8E56A56F67486
:1011B500712568F9749D2568F8E56AF45647F715B1
:1011C50050E550540FF550D209C3220FEFC39408D0
:0611D5005003021102D3D9
:0111DB0022F1
:10273500E53630E309122BB1788456FF8009E5367A
:10274500122BB1788356FFEF7003C38001D3920A31
:012755002261
:1014D500022A67E493A3F8E493A34003F68001F29C
:1014E50008DFF48029E493A3F85407240CC8C33318
:1014F500C4540F4420C8834004F456800146F6DFE7
:10150500E4800B0102040810204080902756E47EF9
:10151500019360BCA3FF543F30E509541FFEE493DB
:10152500A360010ECF54C025E060A840B8E493A3A2
:10153500FAE493A3F8E493A3C8C582C8CAC583CACD
:10154500F0A3C8C582C8CAC583CADFE9DEE780BE85
:012774000064
:100C5100BB010689828A83E0225002E722BBFE02A1
:090C6100E32289828A83E49322D4
:100C6A00BB010CE58229F582E5833AF583E022503F
:100C7A0006E92582F8E622BBFE06E92582F8E22289
:0D0C8A00E58229F582E5833AF583E49322A3
:100C9700F8BB010DE58229F582E5833AF583E8F093
:100CA700225006E92582C8F622BBFE05E92582C83F
:020CB700F22227
:100CB900E88FF0A4CC8BF0A42CFCE98EF0A42CFCDA
:100CC9008AF0EDA42CFCEA8EF0A4CDA8F08BF0A458
:100CD9002DCC3825F0FDE98FF0A42CCD35F0FCEBB7
:100CE9008EF0A4FEA9F0EB8FF0A4CFC5F02ECD397C
:0F0CF900FEE43CFCEAA42DCE35F0FDE43CFC22E9
:100D0800EB9FF5F0EA9E42F0E99D42F0E89C45F041
:010D180022B8
:100D1900E8600FECC313FCED13FDEE13FEEF13FFB8
:030D2900D8F122DC
:100D2C00E8600FEFC333FFEE33FEED33FDEC33FC25
:030D3C00D8F122C9
:0C0D3F00E6FC08E6FD08E6FE08E6FF22E0
:0D0D4B00E6FB08E6F908E6FA08E6CBF82218
:100D58007401FF3395E0FEFDFC080808E62FFFF656
:100D680018E63EFEF618E63DFDF618E63CFCF622CF
:0C0D7800ECF608EDF608EEF608EFF622A7
:100D8400D083D082E493F608740193F60874029336
:090D9400F608740393F67404736D
:060D9D008A838982E473E1
:00000001FF
